8=FIX.4.2|9=145|35=8|15=BTCLTC|38=0.00800000|39=4|40=2|44=126.73899000|49=TradingBot|54=1|56=Peatio|58=07259952-2fc9-47d2-8000-044b930db2d0|60=20181113-10:17:11|10=098|
8=FIX.4.2|9=145|35=8|15=BTCLTC|38=0.00800000|39=4|40=2|44=126.74700000|49=TradingBot|54=2|56=Peatio|58=615050f5-9b74-4a7e-8000-0002a8b8661c|60=20181113-10:17:11|10=075|
